{
  "contractName": "AnotherContract",
  "abi": [
    {
      "inputs": [],
      "payable": false,
      "stateMutability": "nonpayable",
      "type": "constructor"
    },
    {
      "constant": true,
      "inputs": [],
      "name": "myContract",
      "outputs": [
        {
          "internalType": "contract MyContract",
          "name": "",
          "type": "address"
        }
      ],
      "payable": false,
      "stateMutability": "view",
      "type": "function"
    }
  ],
  "bytecode": "0x608060405234801561001057600080fd5b5060405161001d9061007e565b604051809103906000f080158015610039573d6000803e3d6000fd5b506000806101000a81548173ffffffffffffffffffffffffffffffffffffffff021916908373ffffffffffffffffffffffffffffffffffffffff16021790555061008b565b61029d8061016883390190565b60cf806100996000396000f3fe6080604052348015600f57600080fd5b506004361060285760003560e01c8063bc33657a14602d575b600080fd5b60336075565b604051808273ffffffffffffffffffffffffffffffffffffffff1673ffffffffffffffffffffffffffffffffffffffff16815260200191505060405180910390f35b6000809054906101000a900473ffffffffffffffffffffffffffffffffffffffff168156fea265627a7a723158206269823f354e3f1f49e5fe9981476fc685627d9863419dedf139c2839d81e89664736f6c63430005100032608060405234801561001057600080fd5b503073ffffffffffffffffffffffffffffffffffffffff167f0279db4e5aaeda2fda9c29d55593116d4c55c07250a419c180ca01181880fcd560405160405180910390a27f80cd1bb6a295a668df9c7f51c549f6c691f11a8bdc217d0e19592f36c50ddf4130604051808273ffffffffffffffffffffffffffffffffffffffff1673ffffffffffffffffffffffffffffffffffffffff16815260200191505060405180910390a16101d7806100c66000396000f3fe608060405234801561001057600080fd5b50600436106100415760003560e01c806329fcda331461004657806376b8144914610092578063c3da42b8146100de575b600080fd5b61007c6004803603604081101561005c57600080fd5b8101908080359060200190929190803590602001909291905050506100fc565b6040518082815260200191505060405180910390f35b6100c8600480360360408110156100a857600080fd5b81019080803590602001909291908035906020019092919050505061018f565b6040518082815260200191505060405180910390f35b6100e661019c565b6040518082815260200191505060405180910390f35b60008183016000819055507f5f47542b41f8d678dd8cdc3b68a226b1dafc0a979729b75725f5b7fa7b903cea308484600054604051808573ffffffffffffffffffffffffffffffffffffffff1673ffffffffffffffffffffffffffffffffffffffff16815260200184815260200183815260200182815260200194505050505060405180910390a1600054905092915050565b6000818301905092915050565b6000548156fea265627a7a723158205ee83bc7a96c559139a6786f2dbeaabf5e707c1f6e8273f98e20a77aac75935d64736f6c63430005100032",
  "source": "// SPDX-License-Identifier: MIT\n\npragma solidity ^0.5.11;\n\nimport {MyContract} from \"./MyContract.sol\";\n\ncontract AnotherContract {\n  MyContract public myContract;\n  constructor() public {\n    myContract = new MyContract();\n  }\n}",
  "sourcePath": "/Users/jinrirencai/Desktop/node_learn/ethereum-in-depth/ethereum-in-depth/1-contract-creation/contracts/AnotherContract.sol",
  "compiler": {
    "name": "solc",
    "version": "0.5.16+commit.9c3226ce.Emscripten.clang"
  },
  "schemaVersion": "3.4.11",
  "updatedAt": "2023-02-17T03:28:58.463Z",
  "devdoc": {
    "methods": {}
  },
  "userdoc": {
    "methods": {}
  }
}