{
  "contractName": "MyContract",
  "abi": [
    {
      "inputs": [],
      "payable": false,
      "stateMutability": "nonpayable",
      "type": "constructor"
    },
    {
      "anonymous": false,
      "inputs": [
        {
          "indexed": true,
          "internalType": "address",
          "name": "addr",
          "type": "address"
        }
      ],
      "name": "Log1",
      "type": "event"
    },
    {
      "anonymous": false,
      "inputs": [
        {
          "indexed": false,
          "internalType": "address",
          "name": "addr",
          "type": "address"
        }
      ],
      "name": "Log2",
      "type": "event"
    },
    {
      "anonymous": false,
      "inputs": [
        {
          "indexed": false,
          "internalType": "address",
          "name": "addr",
          "type": "address"
        },
        {
          "indexed": false,
          "internalType": "uint256",
          "name": "a",
          "type": "uint256"
        },
        {
          "indexed": false,
          "internalType": "uint256",
          "name": "b",
          "type": "uint256"
        },
        {
          "indexed": false,
          "internalType": "uint256",
          "name": "c",
          "type": "uint256"
        }
      ],
      "name": "Log3",
      "type": "event"
    },
    {
      "constant": true,
      "inputs": [],
      "name": "c",
      "outputs": [
        {
          "internalType": "uint256",
          "name": "",
          "type": "uint256"
        }
      ],
      "payable": false,
      "stateMutability": "view",
      "type": "function"
    },
    {
      "constant": true,
      "inputs": [
        {
          "internalType": "uint256",
          "name": "a",
          "type": "uint256"
        },
        {
          "internalType": "uint256",
          "name": "b",
          "type": "uint256"
        }
      ],
      "name": "add1",
      "outputs": [
        {
          "internalType": "uint256",
          "name": "",
          "type": "uint256"
        }
      ],
      "payable": false,
      "stateMutability": "pure",
      "type": "function"
    },
    {
      "constant": false,
      "inputs": [
        {
          "internalType": "uint256",
          "name": "a",
          "type": "uint256"
        },
        {
          "internalType": "uint256",
          "name": "b",
          "type": "uint256"
        }
      ],
      "name": "add2",
      "outputs": [
        {
          "internalType": "uint256",
          "name": "",
          "type": "uint256"
        }
      ],
      "payable": false,
      "stateMutability": "nonpayable",
      "type": "function"
    }
  ],
  "bytecode": "0x608060405234801561001057600080fd5b503073ffffffffffffffffffffffffffffffffffffffff167f0279db4e5aaeda2fda9c29d55593116d4c55c07250a419c180ca01181880fcd560405160405180910390a27f80cd1bb6a295a668df9c7f51c549f6c691f11a8bdc217d0e19592f36c50ddf4130604051808273ffffffffffffffffffffffffffffffffffffffff1673ffffffffffffffffffffffffffffffffffffffff16815260200191505060405180910390a16101d7806100c66000396000f3fe608060405234801561001057600080fd5b50600436106100415760003560e01c806329fcda331461004657806376b8144914610092578063c3da42b8146100de575b600080fd5b61007c6004803603604081101561005c57600080fd5b8101908080359060200190929190803590602001909291905050506100fc565b6040518082815260200191505060405180910390f35b6100c8600480360360408110156100a857600080fd5b81019080803590602001909291908035906020019092919050505061018f565b6040518082815260200191505060405180910390f35b6100e661019c565b6040518082815260200191505060405180910390f35b60008183016000819055507f5f47542b41f8d678dd8cdc3b68a226b1dafc0a979729b75725f5b7fa7b903cea308484600054604051808573ffffffffffffffffffffffffffffffffffffffff1673ffffffffffffffffffffffffffffffffffffffff16815260200184815260200183815260200182815260200194505050505060405180910390a1600054905092915050565b6000818301905092915050565b6000548156fea265627a7a723158205ee83bc7a96c559139a6786f2dbeaabf5e707c1f6e8273f98e20a77aac75935d64736f6c63430005100032",
  "source": "// SPDX-License-Identifier: MIT\n\npragma solidity ^0.5.13;\n\ncontract MyContract {\n  uint public c;\n  event Log1(address indexed addr);\n  event Log2(address addr);\n  event Log3(address addr, uint a, uint b, uint c);\n\n  constructor() public{\n    emit Log1(address(this));\n    emit Log2(address(this));\n  }\n\n  function add1(uint256 a, uint256 b) public pure returns (uint256) {\n    return a + b;\n  }\n\n  function add2(uint256 a, uint256 b) public returns (uint256) {\n    c = a + b;\n    emit Log3(address(this), a, b, c);\n    return c;\n  }\n\n}\n",
  "sourcePath": "/Users/jinrirencai/Desktop/node_learn/ethereum-in-depth/ethereum-in-depth/1-contract-creation/contracts/MyContract.sol",
  "compiler": {
    "name": "solc",
    "version": "0.5.16+commit.9c3226ce.Emscripten.clang"
  },
  "schemaVersion": "3.4.11",
  "updatedAt": "2023-02-17T05:43:12.314Z",
  "networkType": "ethereum",
  "devdoc": {
    "methods": {}
  },
  "userdoc": {
    "methods": {}
  }
}